:100000000C9472000C9423040C94D5040C9494006A
:100010000C9494000C9494000C9494000C94940010
:100020000C9494000C9494000C9494000C94940000
:100030000C9494000C9494000C9494000C94AB04D5
:100040000C9494000C9494000C9494000C949400E0
:100050000C9494000C9494000C9494000C948104DF
:100060000C9494000C9457040C9494000C949400F9
:100070000C9494000C9494000C9494000C949400B0
:100080000C9494000C9494000C9494000C94FF0431
:100090000C9494000C9494000C9494000C94940090
:1000A0000C9494000C9494000C9494000C94940080
:1000B0000C9494000C9494000C9494000C94940070
:1000C0000C9494000C9494000C9494000C94940060
:1000D0000C9494000C9494000C9494000C94940050
:1000E0000C94940011241FBECFEFD1E2DEBFCDBF30
:1000F00000E00CBF12E0A0E0B2E0E2E4FEE000E0CD
:100100000BBF02C007900D92A035B107D9F71BBEF7
:1001100012E0A0E5B2E001C01D92A939B107E1F7F4
:100120000E94DD030C941F070C940000499B02C041
:100130008CE408958FE4089580915002089580938F
:10014000500208955198E99AE9E6F0E080818460D0
:1001500080830E9496000E949F000895E998E9E636
:10016000F0E080818B7F808308958FEF84B915B88C
:10017000089595B1892B85B90895883060F443B10D
:1001800021E030E0B90102C0660F771F8A95E2F7DF
:10019000CB01842B85B90895883068F443B121E000
:1001A00030E0B90102C0660F771F8A95E2F7CB01F4
:1001B0008095842385B90895883060F443B121E0A7
:1001C00030E0B90102C0660F771F8A95E2F7CB01D4
:1001D000842785B9089578940E94A2000895909389
:1001E0005A028093590208958091590290915A02BF
:1001F000089580915502909156020895909354026B
:10020000809353020895809153029091540208956F
:1002100090935802809357020895809157029091CD
:10022000580208959093520280935102089580914C
:100230005102909152020895809151029091520280
:1002400001969093520280935102089580915B022F
:1002500090915C02089590935C0280935B020895F4
:10026000909356028093550280E090E00E942B010B
:10027000089580E090E00E94300180E090E00E94CC
:10028000120180E090E00E94080180E090E00E946E
:10029000370680E090E00E94320680E090E00E9405
:1002A000FE000E94A20080E090E00E945F06089598
:1002B0000E9482060E944C0508950F931F93CF93CE
:1002C000DF93EC018B010E94F90081309105C1F5AB
:1002D00080915B0290915C0281309105C1F0823087
:1002E00091051CF4009749F094C082309105C9F043
:1002F0008330910509F08DC01EC00E945F0580917A
:100300005B0290915C0201960E942B0182C00E94C8
:100310005F0580915B0290915C0201960E942B0127
:1003200078C00E945F0580915B0290915C0201960B
:100330000E942B016EC082E090E00E94300169C0F3
:100340000E94F9008230910531F00E94F90083305B
:10035000910509F05EC00E9482060E9441050E943C
:10036000F9008230910541F580915B0290915C0229
:10037000880F991FC80FD91F8881998181309105F5
:1003800051F40E945F0580915B0290915C0201969E
:100390000E942B0107C080915B0290915C02019644
:1003A0000E942B010E9426018830910591F583E07F
:1003B00090E00E9430012DC00E94F9008330910529
:1003C00041F580915B0290915C02880F991F080FA4
:1003D000191FF801808191818130910551F40E94AB
:1003E0005F0580915B0290915C0201960E942B0157
:1003F00007C080915B0290915C0201960E942B01E4
:100400000E9426018830910521F480E090E00E944E
:1004100030010E94F900009791F480E090E00E9482
:10042000FE000E944C050E941C0181E090E00E94A9
:10043000EF0081E090E00E9430010E947A0681E0A6
:1004400090E0DF91CF911F910F9108950F931F932B
:10045000CF93DF938C01EB010E9475060097A1F505
:1004600081E090E00E94EF000E947A0680E090E038
:100470000E94AE06259A81E090E00E94300120C0E3
:100480000E9417018330910584F40E94030181309A
:100490009105B1F4C801BE010E945D010097D1F33E
:1004A00080E090E00E94FE000BC00E9417018330A4
:1004B000910534F00E94580181E090E00E9408010B
:1004C0000E940D010097E1F2DF91CF911F910F91F2
:1004D000089514161506ACF4A82FB92FE62FF72FA0
:1004E00080E090E021E030E06D91613319F43183D8
:1004F000208302C0118210820196329684179507DC
:1005000099F70895FC018281803309F047C0838107
:10051000803329F480E092E00E94690208958133DB
:1005200029F485E092E00E9469020895823329F45B
:100530008AE092E00E9469020895833329F48FE0F3
:1005400092E00E9469020895843329F484E192E0E4
:100550000E9469020895853329F489E192E00E949E
:1005600069020895863329F48EE192E00E946902BF
:100570000895873329F483E292E00E946902089586
:10058000883329F488E292E00E9469020895893351
:1005900089F58DE292E00E9469020895813351F558
:1005A0008381803329F482E392E00E9469020895F6
:1005B000813329F487E392E00E946902089582332F
:1005C00029F48CE392E00E9469020895833329F4B0
:1005D00081E492E00E9469020895843329F486E45C
:1005E00092E00E9469020895853321F48BE492E041
:1005F0000E9469020895FC018081803309F047C0A0
:100600008181803329F480E092E00E94690208959C
:10061000813329F485E092E00E94690208958233D3
:1006200029F48AE092E00E9469020895833329F454
:100630008FE092E00E9469020895843329F484E1F6
:1006400092E00E9469020895853329F489E192E0DD
:100650000E9469020895863329F48EE192E00E9497
:1006600069020895873329F483E292E00E946902C7
:100670000895883329F488E292E00E94690208957F
:10068000893389F58DE292E00E94690208958133F1
:1006900051F58181803329F482E392E00E9469025E
:1006A0000895813329F487E392E00E946902089556
:1006B000823329F48CE392E00E9469020895833327
:1006C00029F481E492E00E9469020895843329F4B8
:1006D00086E492E00E9469020895853321F48BE458
:1006E00092E00E9469020895CF93DF93C62FD22F24
:1006F000632FA82FB92FE42FF52F21E030E041E040
:1007000050E08D919D918130910529F45183408372
:100710001382128204C011821082538342832F5F9E
:100720003F4F34962530310561F7AC2FB72FED2FB1
:10073000F62F21E030E041E050E08D919D91813035
:10074000910529F4518340831382128204C01182DF
:100750001082538342832F5F3F4F349625303105FB
:1007600061F7DF91CF9108958F929F92AF92BF92E0
:10077000CF92DF92EF92FF920F931F93CF93DF936D
:10078000EC015B0149010E94FB02CE01B401A8010A
:100790000E948202C501B401A70196010E94740360
:1007A000DF91CF911F910F91FF90EF90DF90CF904D
:1007B000BF90AF909F908F9008950E94EB000F2EF6
:1007C000FDE78F2EF2E09F2EF02D0F2EFDE56F2E10
:1007D000F2E07F2EF02D0F2EF5E74F2EF2E05F2E88
:1007E000F02DC1E8D2E00F2EF5E6AF2EF2E0BF2EDD
:1007F000F02D60E875E280E090E048E02EE401E052
:100800000E946C050E945A060097E1F30E94AE0018
:100810000E949C008C3429F4C40164E070E00E94C2
:100820006406C401B30144E050E0920104E010E02A
:100830007E0165010E94B403CE01B5010E9426022B
:100840000E943901D6CF1F920F920FB60F920BB6AE
:100850000F9211242F933F934F935F936F937F9346
:100860008F939F93AF93BF93EF93FF930E94F400F6
:100870008130910529F480E090E00E94EF0004C0EF
:1008800081E090E00E948906FF91EF91BF91AF91C6
:100890009F918F917F916F915F914F913F912F9198
:1008A0000F900BBE0F900FBE0F901F9018951F92C8
:1008B0000F920FB60F920BB60F9211242F933F9306
:1008C0004F935F936F937F938F939F93AF93BF9358
:1008D000EF93FF938DE792E00E943C06FF91EF912A
:1008E000BF91AF919F918F917F916F915F914F9148
:1008F0003F912F910F900BBE0F900FBE0F901F9046
:1009000018951F920F920FB60F920BB60F921124EB
:100910002F933F934F935F936F937F938F939F9307
:10092000AF93BF93EF93FF9381E090E00E94FE00AE
:10093000FF91EF91BF91AF919F918F917F916F91B7
:100940005F914F913F912F910F900BBE0F900FBE73
:100950000F901F9018951F920F920FB60F920BB623
:100960000F9211242F933F934F935F936F937F9335
:100970008F939F93AF93BF93EF93FF930E94630571
:100980000E946505FF91EF91BF91AF919F918F916B
:100990007F916F915F914F913F912F910F900BBE7F
:1009A0000F900FBE0F901F9018951F920F920FB6C9
:1009B0000F920BB60F9211242F933F934F935F9397
:1009C0006F937F938F939F93AF93BF93EF93FF9317
:1009D0000E9496000E949F00FF91EF91BF91AF91FE
:1009E0009F918F917F916F915F914F913F912F9147
:1009F0000F900BBE0F900FBE0F901F9018951F9277
:100A00000F920FB60F920BB60F9211242F933F93B4
:100A10004F935F936F937F938F939F93AF93BF9306
:100A2000EF93FF9381E090E00E94FE000E94B306E6
:100A3000009749F481E090E00E94AE068AE090E0E1
:100A40000E9489060BC00E94B3068130910531F4E3
:100A500080E090E00E94AE060E94A706FF91EF9111
:100A6000BF91AF919F918F917F916F915F914F91C6
:100A70003F912F910F900BBE0F900FBE0F901F90C4
:100A8000189585B5846085BDEEE6F0E080818160D3
:100A9000808380E386BD089514BC15BC10926E005F
:100AA0000895E0E7F0E0808181608083E1EBF0E091
:100AB00080818660808381EC8093B20008952D9AB6
:100AC0000E94510508952D9808951092B00010923B
:100AD000B100109270000895CF92DF92EF92FF92D2
:100AE0000F93DC01CB010F2EF2E9CF2EFFEFDF2EAB
:100AF000FFEFEF2EFFEFFF2EF02DC80ED91EEA1EDE
:100B0000FB1E33E9C31631ECD30631E0E30630E0D7
:100B1000F30608F046C0453008F443C0493008F0F9
:100B200040C030E23093C00038E13093C100002370
:100B300029F0E1ECF0E03081306830834550440F1B
:100B4000E2ECF0E04083308138603083253421F4DA
:100B500020812062208307C02F3429F4E2ECF0E0EA
:100B6000208120632083880F991FAA1FBB1F880F35
:100B7000991FAA1FBB1F9C01AD01220F331F441FE9
:100B8000551F220F331F441F551F60E074E284EF8E
:100B900090E00E94B806215030403093C500209369
:100BA000C4000F91FF90EF90DF90CF9008951092C6
:100BB000C1001092C0001092C2001092C5001092A5
:100BC000C40008958091C00080780895E0ECF0E0C2
:100BD00080818823ECF78091C6000895E0ECF0E076
:100BE000908195FFFDCF8093C6000895CF93DF934A
:100BF000EC018881882331F021960E94EE058991CD
:100C00008823D9F7DF91CF910895CF93DF93CDB7A4
:100C1000DEB727970FB6F894DEBF0FBECDBFBE017B
:100C20006F5F7F4F4AE050E00E94DA06CE010196E6
:100C30000E94F60527960FB6F894DEBF0FBECDBF13
:100C4000DF91CF910895809195029091960201963F
:100C500090939602809395020895809195029091C9
:100C6000960208959093960280939502089590932A
:100C70009202809391020895CF93DF93EC010E943A
:100C80002D062091C600C80FD91F28830E94230675
:100C90000E942D068430910554F080E090E00E947F
:100CA00032060E94D70581E090E00E943706DF916E
:100CB000CF9108958091910290919202089590931E
:100CC0009402809393020895161617064CF4E82FA9
:100CD000F92F80E090E01192019686179707D9F7D7
:100CE00081E090E00E945F060895809193029091C8
:100CF000940208955098E89AE9E6F0E080818260D5
:100D000080830895E898E9E6F0E080818C7F808315
:100D100008958130910571F41092900021E02093A4
:100D200071008FE998EE9093950080939400209342
:100D3000910008958A30910549F482E080939100F2
:100D400080EE91EB9093950080939400089510921B
:100D50009000109291001092710008959093980263
:100D60008093970208958091970290919802089538
:100D7000A1E21A2EAA1BBB1BFD010DC0AA1FBB1F9F
:100D8000EE1FFF1FA217B307E407F50720F0A21B11
:100D9000B30BE40BF50B661F771F881F991F1A947E
:100DA00069F760957095809590959B01AC01BD01A8
:100DB000CF010895FB019F01E8944230C4F0453211
:100DC000B4F44A3029F497FB1EF4909581959F4F17
:100DD000642F77270E940B07805D8A330CF0895DB2
:100DE0008193CB010097A1F716F45DE25193108235
:100DF000C9010C94FB06DC01FC01672F719177237C
:100E0000E1F7329704C07C916D9370836291AE17C5
:100E1000BF07C8F30895AA1BBB1B51E107C0AA1F57
:100E2000BB1FA617B70710F0A61BB70B881F991F8B
:100E30005A95A9F780959095BC01CD010895F89435
:020E4000FFCFE2
:100E4200303030300030303031003030313000302E
:100E5200303131003031303000303130310030311A
:100E6200313000303131310031303030003130300A
:100E720031003130313000313031310031313030F8
:100E82000031313031003131313000313131310016
:00000001FF
