:100000000C9472000C94CA030C947C040C9494001D
:100010000C9494000C9494000C9494000C94940010
:100020000C9494000C9494000C9494000C94940000
:100030000C9494000C9494000C9494000C9452042E
:100040000C9494000C9494000C9494000C949400E0
:100050000C9494000C9494000C9494000C94280438
:100060000C9494000C94FE030C9494000C94940053
:100070000C9494000C9494000C9494000C949400B0
:100080000C9494000C9494000C9494000C94A6048A
:100090000C9494000C9494000C9494000C94940090
:1000A0000C9494000C9494000C9494000C94940080
:1000B0000C9494000C9494000C9494000C94940070
:1000C0000C9494000C9494000C9494000C94940060
:1000D0000C9494000C9494000C9494000C94940050
:1000E0000C94940011241FBECFEFD1E2DEBFCDBF30
:1000F00000E00CBF12E0A0E0B2E0E0ECFDE000E0C8
:100100000BBF02C007900D92A035B107D9F71BBEF7
:1001100012E0A0E5B2E001C01D92A939B107E1F7F4
:100120000E9496030C94DE060C940000499B02C0CA
:100130008CE408958FE4089580915002089580938F
:10014000500208955198E99AE9E6F0E080818460D0
:1001500080830E9496000E949F000895E998E9E636
:10016000F0E080818B7F8083089578940E94A200C4
:10017000089590935A0280935902089580915902EC
:1001800090915A02089580915502909156020895D7
:10019000909354028093530208958091530290915A
:1001A00054020895909358028093570208958091C5
:1001B00057029091580208959093520280935102F1
:1001C00008958091510290915202089580915102B8
:1001D0009091520201969093520280935102089599
:1001E00080915B0290915C02089590935C028093F1
:1001F0005B020895909356028093550280E090E050
:100200000E94F500089580E090E00E94FA0080E0EE
:1002100090E00E94DC0080E090E00E94D20080E04C
:1002200090E00E94F60580E090E00E94F10580E0F9
:1002300090E00E94C8000E94A20080E090E00E942E
:100240001E06089580915B0290915C020196909346
:100250005C0280935B0208950E9441060E94F304B1
:1002600008950F931F93CF93DF93EC018B010E94AE
:10027000C3008130910549F580915B0290915C0249
:100280008130910599F0823091051CF4009749F076
:1002900071C08230910579F08330910509F06AC010
:1002A0000FC00E940B050E94220164C00E940B0532
:1002B0000E9422015FC00E940B050E9422015AC0C9
:1002C00082E090E00E94FA0055C00E94C300823094
:1002D000910531F00E94C3008330910509F04AC0B6
:1002E0000E9441060E94E8040E94C30082309105EA
:1002F000F1F480915B0290915C02880F991FC80F06
:10030000D91F888199818130910529F40E940B05BC
:100310000E94220102C00E9422010E94F000883047
:10032000910541F583E090E00E94FA0023C00E940D
:10033000C30083309105F1F480915B0290915C02DF
:10034000880F991F080F191FF80180819181813052
:10035000910529F40E940B050E94220102C00E940F
:1003600022010E94F0008830910521F480E090E0A5
:100370000E94FA000E94C300009791F480E090E090
:100380000E94C8000E94F3040E94E60081E090E011
:100390000E94B90081E090E00E94FA000E943906B4
:1003A00081E090E0DF91CF911F910F9108950F931D
:1003B0001F93CF93DF938C01EB010E9434060097CB
:1003C000A1F581E090E00E94B9000E94390680E02A
:1003D00090E00E946D06259A81E090E00E94FA006C
:1003E00020C00E94E1008330910584F40E94CD007A
:1003F00081309105B1F4C801BE010E94310100971E
:10040000D1F380E090E00E94C8000BC00E94E100A0
:100410008330910534F00E942C0181E090E00E942D
:10042000D2000E94D7000097E1F2DF91CF911F9197
:100430000F91089514161506ACF4A82FB92FE62FC6
:10044000F72F80E090E021E030E06D91613319F406
:100450003183208302C01182108201963296841764
:10046000950799F70895FC018281803309F047C010
:100470008381803329F480E092E00E941A0208957B
:10048000813329F485E092E00E941A0208958233B4
:1004900029F48AE092E00E941A020895833329F435
:1004A0008FE092E00E941A020895843329F484E1D7
:1004B00092E00E941A020895853329F489E192E0BE
:1004C0000E941A020895863329F48EE192E00E9478
:1004D0001A020895873329F483E292E00E941A02F7
:1004E0000895883329F488E292E00E941A02089560
:1004F000893389F58DE292E00E941A0208958133D2
:1005000051F58381803329F482E392E00E941A023C
:100510000895813329F487E392E00E941A02089536
:10052000823329F48CE392E00E941A020895833307
:1005300029F481E492E00E941A020895843329F498
:1005400086E492E00E941A020895853321F48BE438
:1005500092E00E941A020895FC018081803309F024
:1005600047C08181803329F480E092E00E941A0222
:100570000895813329F485E092E00E941A020895DB
:10058000823329F48AE092E00E941A0208958333AC
:1005900029F48FE092E00E941A020895843329F42E
:1005A00084E192E00E941A020895853329F489E1DA
:1005B00092E00E941A020895863329F48EE192E0B7
:1005C0000E941A020895873329F483E292E00E9480
:1005D0001A020895883329F488E292E00E941A02F0
:1005E0000895893389F58DE292E00E941A020895F8
:1005F000813351F58181803329F482E392E00E94B6
:100600001A020895813329F487E392E00E941A02C6
:100610000895823329F48CE392E00E941A0208952F
:10062000833329F481E492E00E941A02089584330E
:1006300029F486E492E00E941A020895853321F499
:100640008BE492E00E941A020895CF93DF93C62FA5
:10065000D22F632FA82FB92FE42FF52F21E030E000
:1006600041E050E08D919D918130910529F45183B5
:1006700040831382128204C011821082538342830A
:100680002F5F3F4F34962530310561F7AC2FB72FE0
:10069000ED2FF62F21E030E041E050E08D919D916B
:1006A0008130910529F4518340831382128204C062
:1006B00011821082538342832F5F3F4F349625303F
:1006C000310561F7DF91CF910895AF92BF92CF923C
:1006D000DF92EF92FF920F931F93CF93DF93EC0182
:1006E0006B015A010DE512E0B80144E050E00E94B0
:1006F000AC020F2EF5E6EF2EF2E0FF2EF02DCE012C
:10070000B70144E050E00E943302C801B701A601DE
:1007100095010E942503DF91CF911F910F91FF90CA
:10072000EF90DF90CF90BF90AF9008950E94B500FA
:100730000F2EFDE7CF2EF2E0DF2EF02DC1E8D2E044
:100740000F2EFDE6EF2EF2E0FF2EF02D60E875E2B1
:1007500080E090E048E02EE401E00E942B050E943A
:1007600019060097E1F30E94AE000E949C008C34B1
:1007700029F4C60164E070E00E942306C601BE01B0
:10078000A7010E946503CE01B7010E94D7010E9414
:100790000301DCCF1F920F920FB60F920BB60F9290
:1007A00011242F933F934F935F936F937F938F9376
:1007B0009F93AF93BF93EF93FF930E94BE0081304E
:1007C000910529F480E090E00E94B90004C081E026
:1007D00090E00E944806FF91EF91BF91AF919F91E9
:1007E0008F917F916F915F914F913F912F910F90DA
:1007F0000BBE0F900FBE0F901F9018951F920F9277
:100800000FB60F920BB60F9211242F933F934F9375
:100810005F936F937F938F939F93AF93BF93EF9368
:10082000FF938DE792E00E94FB05FF91EF91BF914E
:10083000AF919F918F917F916F915F914F913F9178
:100840002F910F900BBE0F900FBE0F901F90189519
:100850001F920F920FB60F920BB60F9211242F9387
:100860003F934F935F936F937F938F939F93AF9338
:10087000BF93EF93FF9381E090E00E94C800FF9147
:10088000EF91BF91AF919F918F917F916F915F9108
:100890004F913F912F910F900BBE0F900FBE0F9075
:1008A0001F9018951F920F920FB60F920BB60F92D2
:1008B00011242F933F934F935F936F937F938F9365
:1008C0009F93AF93BF93EF93FF930E94F8040E940E
:1008D0002405FF91EF91BF91AF919F918F917F91EF
:1008E0006F915F914F913F912F910F900BBE0F90A1
:1008F0000FBE0F901F9018951F920F920FB60F9278
:100900000BB60F9211242F933F934F935F936F93E6
:100910007F938F939F93AF93BF93EF93FF930E9427
:1009200096000E949F00FF91EF91BF91AF919F9120
:100930008F917F916F915F914F913F912F910F9088
:100940000BBE0F900FBE0F901F9018951F920F9225
:100950000FB60F920BB60F9211242F933F934F9324
:100960005F936F937F938F939F93AF93BF93EF9317
:10097000FF9381E090E00E94C8000E9472060097F9
:1009800049F481E090E00E946D068AE090E00E94C8
:1009900048060BC00E9472068130910531F480E058
:1009A00090E00E946D060E946606FF91EF91BF9154
:1009B000AF919F918F917F916F915F914F913F91F7
:1009C0002F910F900BBE0F900FBE0F901F90189598
:1009D00085B5846085BDEEE6F0E08081816080832E
:1009E00080E386BD089514BC15BC10926E00089576
:1009F00010928000109281000895E0E7F0E080817D
:100A000081608083E1EBF0E080818660808381EC0F
:100A10008093B2000895E0E8F0E0808182688083EE
:100A2000E1E8F0E080818961808382E490E0909346
:100A300089008093880084E890E0909387008093F9
:100A400086000E94FD0408951092B0001092B1003B
:100A5000109270000895CF92DF92EF92FF920F9361
:100A6000DC01CB010F2EF2E9CF2EFFEFDF2EFFEFDF
:100A7000EF2EFFEFFF2EF02DC80ED91EEA1EFB1E33
:100A800033E9C31631ECD30631E0E30630E0F30678
:100A900008F046C0453008F443C0493008F040C073
:100AA00030E23093C00038E13093C100002329F0D8
:100AB000E1ECF0E03081306830834550440FE2ECE7
:100AC000F0E04083308138603083253421F4208188
:100AD0002062208307C02F3429F4E2ECF0E020816B
:100AE00020632083880F991FAA1FBB1F880F991F9F
:100AF000AA1FBB1F9C01AD01220F331F441F551FAE
:100B0000220F331F441F551F60E074E284EF90E012
:100B10000E947706215030403093C5002093C400D6
:100B20000F91FF90EF90DF90CF9008951092C10049
:100B30001092C0001092C2001092C5001092C40022
:100B400008958091C00080780895E0ECF0E0808105
:100B50008823ECF78091C6000895E0ECF0E09081E6
:100B600095FFFDCF8093C6000895CF93DF93EC01EE
:100B70008881882331F021960E94AD0589918823D0
:100B8000D9F7DF91CF910895CF93DF93CDB7DEB73B
:100B900027970FB6F894DEBF0FBECDBFBE016F5FC3
:100BA0007F4F4AE050E00E949906CE0101960E94D4
:100BB000B50527960FB6F894DEBF0FBECDBFDF9107
:100BC000CF9108958091950290919602019690930D
:100BD00096028093950208958091950290919602D5
:100BE00008959093960280939502089590939202AF
:100BF000809391020895CF93DF93EC010E94EC055E
:100C00002091C600C80FD91F28830E94E2050E94C8
:100C1000EC058430910554F080E090E00E94F105ED
:100C20000E94960581E090E00E94F605DF91CF9149
:100C30000895809191029091920208959093940268
:100C4000809393020895161617064CF4E82FF92F97
:100C500080E090E01192019686179707D9F781E01E
:100C600090E00E941E060895809193029091940254
:100C700008955098E89AE9E6F0E0808182608083E8
:100C80000895E898E9E6F0E080818C7F80830895FC
:100C90008130910571F41092900021E02093710051
:100CA0008FE998EE909395008093940020939100A3
:100CB00008958A30910549F482E08093910080EE96
:100CC00091EB90939500809394000895109290007A
:100CD0001092910010927100089590939802809361
:100CE0009702089580919702909198020895A1E249
:100CF0001A2EAA1BBB1BFD010DC0AA1FBB1FEE1F96
:100D0000FF1FA217B307E407F50720F0A21BB30BE0
:100D1000E40BF50B661F771F881F991F1A9469F75C
:100D200060957095809590959B01AC01BD01CF01B8
:100D30000895FB019F01E8944230C4F04532B4F4B9
:100D40004A3029F497FB1EF4909581959F4F642FAC
:100D500077270E94CA06805D8A330CF0895D8193F3
:100D6000CB010097A1F716F45DE251931082C901FF
:100D70000C94BA06DC01FC01672F71917723E1F72F
:100D8000329704C07C916D9370836291AE17BF0758
:100D9000C8F30895AA1BBB1B51E107C0AA1FBB1FC4
:100DA000A617B70710F0A61BB70B881F991F5A95F7
:100DB000A9F780959095BC01CD010895F894FFCFD7
:100DC00030303030003030303100303031300030B1
:100DD000303131003031303000303130310030319D
:100DE000313000303131310031303030003130308D
:100DF000310031303130003130313100313130307B
:100E00000031313031003131313000313131310098
:00000001FF
