S00E000053657269616C2E73726563B6
S11300000C9472000C9481040C9428050C949400B4
S11300100C9494000C9494000C9494000C9494000C
S11300200C9494000C9494000C9494000C949400FC
S11300300C9494000C9494000C9494000C94140567
S11300400C9494000C9494000C9494000C949400DC
S11300500C9494000C9494000C9494000C94EA0472
S11300600C9494000C94AB040C9494000C949400A1
S11300700C9494000C9494000C9494000C949400AC
S11300800C9494000C9494000C9494000C945205D9
S11300900C9494000C9494000C9494000C9494008C
S11300A00C9494000C9494000C9494000C9494007C
S11300B00C9494000C9494000C9494000C9494006C
S11300C00C9494000C9494000C9494000C9494005C
S11300D00C9494000C9494000C9494000C9494004C
S11300E00C94940011241FBECFEFD1E2DEBFCDBF2C
S11300F000E00CBF12E0A0E0B2E0E4E7FEE000E0C4
S11301000BBF02C007900D92A035B107D9F71BBEF3
S113011012E0A0E5B2E001C01D92A739B107E1F7F2
S11301200E940D040C9438070C940000499B02C0F3
S11301308CE408958FE408955198E99AE9E6F0E093
S11301408081846080830895809150020895809313
S1130150500208958FEF84B915B8089595B1892B8D
S113016085B90895883060F443B121E030E0B901E5
S113017002C0660F771F8A95E2F7CB01842B85B9FD
S11301800895883068F443B121E030E0B90102C039
S1130190660F771F8A95E2F7CB018095842385B992
S11301A00895883060F443B121E030E0B90102C021
S11301B0660F771F8A95E2F7CB01842785B90895E6
S11301C090935E0280935D02089580915D02909108
S11301D05E0208958091590290915A020895909375
S11301E058028093570208958091570290915802C3
S11301F0089590935C0280935B02089580915B0262
S113020090915C0208959093520280935102089554
S113021080915102909152020895809151029091DF
S11302205202019690935202809351020895809154
S11302305F029091600208959093600280935F0240
S1130240089590935A028093590280E090E00E94AE
S11302501C0108950E949A060E94AF0508950F9309
S11302601F93CF93DF93EC018B010E94EA0081304E
S11302709105C1F580915F029091600281309105F2
S1130280C1F0823091051CF4009749F094C082308B
S11302909105C9F08330910509F08DC01EC00E94FC
S11302A0C20580915F029091600201960E941C0138
S11302B082C00E94C20580915F0290916002019603
S11302C00E941C0178C00E94C20580915F02909137
S11302D0600201960E941C016EC082E090E00E94C0
S11302E0210169C00E94EA008230910531F00E9428
S11302F0EA008330910509F05EC00E949A060E94CC
S1130300A4050E94EA008230910541F580915F02C4
S113031090916002880F991FC80FD91F8881998115
S11303208130910551F40E94C20580915F02909141
S1130330600201960E941C0107C080915F029091A7
S1130340600201960E941C010E94170188309105E9
S113035091F583E090E00E9421012DC00E94EA0003
S11303608330910541F580915F0290916002880F7E
S1130370991F080F191FF80180819181813091051F
S113038051F40E94C20580915F029091600201962F
S11303900E941C0107C080915F0290916002019647
S11303A00E941C010E9417018830910521F480E00D
S11303B090E00E9421010E94EA00009791F480E0FD
S11303C090E00E94EF000E94AF050E940D0181E0C1
S11303D090E00E94E00081E090E00E9421010E94F0
S11303E0920681E090E0DF91CF911F910F910895E3
S11303F00F931F93CF93DF93EC018B0180E090E088
S11304000E94EF0080E090E00E94F90080E090E01C
S11304100E94C706259A81E090E00E94210134C021
S11304200E940801009781F40E94F4008130910534
S113043059F5CE01B8010E942F010097D1F380E055
S113044090E00E94EF0020C00E94080183309105D3
S113045084F40E94F40081309105B1F4CE01B80116
S11304600E942F010097D1F380E090E00E94EF00FA
S11304700BC00E9408018330910534F00E942A01C8
S113048081E090E00E94F9000E94FE00009741F292
S1130490DF91CF911F910F9108959093540280930F
S11304A053020895809153029091540208958091CB
S11304B061029091620201969093620280936102BC
S11304C0089580916102909162020895909362026E
S11304D080936102089580E090E00E94210180E011
S11304E090E00E94030180E090E00E94F90080E027
S11304F090E00E944D0280E090E00E94660280E05D
S113050090E00E94EF00089514161506ACF4A82F8D
S1130510B92FE62FF72F80E090E021E030E06D91D5
S1130520613319F43183208302C011821082019651
S113053032968417950799F70895FC0182818033D8
S113054009F047C08381803329F480E092E00E945F
S113055084020895813329F485E092E00E948402A4
S11305600895823329F48AE092E00E948402089577
S1130570833329F48FE092E00E9484020895843347
S113058029F484E192E00E9484020895853329F4D9
S113059089E192E00E9484020895863329F48EE171
S11305A092E00E9484020895873329F483E292E062
S11305B00E9484020895883329F488E292E00E941C
S11305C084020895893389F58DE292E00E948402C1
S11305D00895813351F58381803329F482E392E0D5
S11305E00E9484020895813329F487E392E00E94F3
S11305F084020895823329F48CE392E00E948402F9
S11306000895833329F481E492E00E9484020895DA
S1130610843329F486E492E00E94840208958533A9
S113062021F48BE492E00E9484020895FC0180810D
S1130630803309F047C08181803329F480E092E05F
S11306400E9484020895813329F485E092E00E9497
S113065084020895823329F48AE092E00E9484029D
S11306600895833329F48FE092E00E948402089570
S1130670843329F484E192E00E948402089585334E
S113068029F489E192E00E9484020895863329F4D2
S11306908EE192E00E9484020895873329F483E274
S11306A092E00E9484020895883329F488E292E05B
S11306B00E9484020895893389F58DE292E00E94B4
S11306C084020895813351F58181803329F482E3D2
S11306D092E00E9484020895813329F487E392E032
S11306E00E9484020895823329F48CE392E00E94EC
S11306F084020895833329F481E492E00E94840201
S11307000895843329F486E492E00E9484020895D3
S1130710853321F48BE492E00E9484020895CF9300
S1130720DF93DC01FA01E9018D919C9111978130ED
S1130730910539F01182108281E090E093838283E5
S113074006C081E090E09183808313821282129626
S11307508D919C9113978130910539F481E090E05B
S1130760958384831782168206C01582148281E0E1
S113077090E097838683FB0180819181813091058C
S113078039F01982188281E090E09B838A8306C045
S113079081E090E0998388831B821A82FB01828125
S11307A093818130910539F481E090E09D838C83BD
S11307B01F821E8206C01D821C8281E090E09F83FE
S11307C08E83DF91CF9108958F929F92AF92BF92C3
S11307D0CF92DF92EF92FF920F931F93CF93DF9309
S11307E0EC015B0149010E941603CE01B401A8018A
S11307F00E949D02C501B401A70196010E948F03C6
S1130800DF91CF911F910F91FF90EF90DF90CF90E8
S1130810BF90AF909F908F900895CF93DF930F92E6
S11308200F92CDB7DEB70E94AF0578940E949C006A
S113083060E875E280E090E048E02EE401E00E9488
S1130840DB050E9496000E94A7000F2EF3E8AF2E4E
S1130850F2E0BF2EF02D0894A11CB11C8824992429
S1130860689481F883E892E0880E991E0F2EF3E0D5
S11308706F2E7724F02D680E791E89839A830F2EAC
S1130880F7E84F2EF2E05F2EF02D0F2EFBE62F2E11
S1130890F2E03F2EF02D0E946B0280E090E00E9477
S11308A04D0260E875E280E090E048E02EE401E06B
S11308B00E94DB050E9452020097E1F309C0E3E8BD
S11308C0F2E01082F5011082F4011082F30110822B
S11308D00E94A4008C3499F389819A8163E672E0C2
S11308E044E050E02BE732E004E010E072016101E3
S11308F00E94E4030E949206C201B1010E94F80121
S1130900CACF1F920F920FB60F920BB60F921124FB
S11309102F933F934F935F936F937F938F939F9303
S1130920AF93BF93EF93FF9381E090E00E94A10601
S1130930FF91EF91BF91AF919F918F917F916F91B3
S11309405F914F913F912F910F900BBE0F900FBE6F
S11309500F901F9018951F920F920FB60F920BB61F
S11309600F9211242F933F934F935F936F937F9331
S11309708F939F93AF93BF93EF93FF930E94610272
S11309802091C600FC01ED57FD4F20830E945702C1
S11309900E9461028430910554F080E090E00E944E
S11309A066020E94460681E090E00E944D02FF919B
S11309B0EF91BF91AF919F918F917F916F915F91D3
S11309C04F913F912F910F900BBE0F900FBE0F9040
S11309D01F9018951F920F920FB60F920BB60F929D
S11309E011242F933F934F935F936F937F938F9330
S11309F09F93AF93BF93EF93FF9381E090E00E94A6
S1130A00EF00FF91EF91BF91AF919F918F917F91F3
S1130A106F915F914F913F912F910F900BBE0F906B
S1130A200FBE0F901F9018951F920F920FB60F9242
S1130A30112410928000109281001092B000109244
S1130A40B100109270000F900FBE0F901F90189578
S1130A501F920F920FB60F920BB60F9211242F9381
S1130A603F934F935F936F937F938F939F93AF9332
S1130A70BF93EF93FF930E9496000E94A700FF91FB
S1130A80EF91BF91AF919F918F917F916F915F9102
S1130A904F913F912F910F900BBE0F900FBE0F906F
S1130AA01F9018951F920F920FB60F920BB60F92CC
S1130AB011242F933F934F935F936F937F938F935F
S1130AC09F93AF93BF93EF93FF930E94E500813010
S1130AD0910559F480E090E00E94EF0080E090E0FE
S1130AE00E94E0000E94C0061CC081E090E00E94C9
S1130AF0EF000E94CC06009749F481E090E00E9448
S1130B00C7068AE090E00E94A1060BC00E94CC06B2
S1130B108130910531F480E090E00E94C7060E9484
S1130B20C006FF91EF91BF91AF919F918F917F91FB
S1130B306F915F914F913F912F910F900BBE0F904A
S1130B400FBE0F901F90189585B5846085BDEEE6A5
S1130B50F0E080818160808380E386BD089514BCC9
S1130B6015BC10926E000895E0E7F0E0808181608A
S1130B708083E1EBF0E080818660808381EC809368
S1130B80B2000895E0E8F0E0808182688083E1E8C3
S1130B90F0E080818961808382E490E09093890011
S1130BA08093880084E890E0909387008093860087
S1130BB00E94B4050895CF92DF92EF92FF920F93B3
S1130BC0DC01CB010F2EF2E9CF2EFFEFDF2EFFEF7A
S1130BD0EF2EFFEFFF2EF02DC80ED91EEA1EFB1ECE
S1130BE033E9C31631ECD30631E0E30630E0F30613
S1130BF008F046C0453008F443C0493008F040C00E
S1130C0030E23093C00038E13093C100002329F072
S1130C10E1ECF0E03081306830834550440FE2EC81
S1130C20F0E04083308138603083253421F4208122
S1130C302062208307C02F3429F4E2ECF0E0208105
S1130C4020632083880F991FAA1FBB1F880F991F39
S1130C50AA1FBB1F9C01AD01220F331F441F551F48
S1130C60220F331F441F551F60E074E284EF90E0AD
S1130C700E94D106215030403093C5002093C40017
S1130C800F91FF90EF90DF90CF9008951092C100E4
S1130C901092C0001092C2001092C5001092C400BD
S1130CA008958091C00080780895E0ECF0E08081A0
S1130CB08823ECF78091C6000895E0ECF0E0908181
S1130CC095FFFDCF8093C6000895CF93DF93EC0189
S1130CD08881882331F021960E945D0689918823BA
S1130CE0D9F7DF91CF910895CF93DF93CDB7DEB7D6
S1130CF027970FB6F894DEBF0FBECDBFBE016F5F5E
S1130D007F4F4AE050E00E94F306CE0101960E9414
S1130D10650627960FB6F894DEBF0FBECDBFDF91F0
S1130D20CF9108955098E89AE9E6F0E080818260D6
S1130D3080830895E898E9E6F0E080818C7F8083E1
S1130D4008951092900021E0209371008130910564
S1130D5051F48AE494EF909395008093940081E099
S1130D608093910008958A30910549F482E080933C
S1130D7091008AE394EB90939500809394000895F6
S1130D801092900010929100109271000895909327
S1130D90560280935502089580915502909156020F
S1130DA00895A1E21A2EAA1BBB1BFD010DC0AA1FA8
S1130DB0BB1FEE1FFF1FA217B307E407F50720F0C0
S1130DC0A21BB30BE40BF50B661F771F881F991F3B
S1130DD01A9469F760957095809590959B01AC0184
S1130DE0BD01CF010895FB019F01E8944230C4F096
S1130DF04532B4F44A3029F497FB1EF4909581955A
S1130E009F4F642F77270E942407805D8A330CF05C
S1130E10895D8193CB010097A1F716F45DE25193AC
S1130E201082C9010C941407DC01FC01672F719135
S1130E307723E1F7329704C07C916D9370836291BC
S1130E40AE17BF07C8F30895AA1BBB1B51E107C027
S1130E50AA1FBB1FA617B70710F0A61BB70B881F46
S1130E60991F5A95A9F780959095BC01CD010895D5
S1070E70F894FFCF20
S1130E7430303030003030303100303031300030F8
S1130E8430313100303130300030313031003031E4
S1130E9431300030313131003130303000313030D4
S1130EA431003130313000313031310031313030C2
S1130EB400313130310031313130003131313100E0
S9030000FC
